{
	"contracts/4_HelloWorld.sol": {
		"HelloWorld": {
			"abi": [
				{
					"inputs": [],
					"name": "seeLastVisit",
					"outputs": [
						{
							"internalType": "string",
							"name": "",
							"type": "string"
						},
						{
							"internalType": "address",
							"name": "",
							"type": "address"
						},
						{
							"internalType": "string",
							"name": "",
							"type": "string"
						},
						{
							"internalType": "uint256",
							"name": "",
							"type": "uint256"
						}
					],
					"stateMutability": "view",
					"type": "function"
				},
				{
					"inputs": [
						{
							"internalType": "string",
							"name": "_name",
							"type": "string"
						},
						{
							"internalType": "string",
							"name": "_message",
							"type": "string"
						}
					],
					"name": "writeVisit",
					"outputs": [],
					"stateMutability": "nonpayable",
					"type": "function"
				}
			],
			"devdoc": {
				"kind": "dev",
				"methods": {},
				"version": 1
			},
			"evm": {
				"assembly": "    /* \"contracts/4_HelloWorld.sol\":74:650  contract HelloWorld{... */\n  mstore(0x40, 0x80)\n  callvalue\n  dup1\n  iszero\n  tag_1\n  jumpi\n  0x00\n  dup1\n  revert\ntag_1:\n  pop\n  dataSize(sub_0)\n  dup1\n  dataOffset(sub_0)\n  0x00\n  codecopy\n  0x00\n  return\nstop\n\nsub_0: assembly {\n        /* \"contracts/4_HelloWorld.sol\":74:650  contract HelloWorld{... */\n      mstore(0x40, 0x80)\n      callvalue\n      dup1\n      iszero\n      tag_1\n      jumpi\n      0x00\n      dup1\n      revert\n    tag_1:\n      pop\n      jumpi(tag_2, lt(calldatasize, 0x04))\n      shr(0xe0, calldataload(0x00))\n      dup1\n      0x2f14f8a1\n      eq\n      tag_3\n      jumpi\n      dup1\n      0xf85248fb\n      eq\n      tag_4\n      jumpi\n    tag_2:\n      0x00\n      dup1\n      revert\n        /* \"contracts/4_HelloWorld.sol\":394:647  function writeVisit(string memory _name, string memory _message) external {... */\n    tag_3:\n      tag_5\n      0x04\n      dup1\n      calldatasize\n      sub\n      dup2\n      add\n      swap1\n      tag_6\n      swap2\n      swap1\n      tag_7\n      jump\t// in\n    tag_6:\n      tag_8\n      jump\t// in\n    tag_5:\n      stop\n        /* \"contracts/4_HelloWorld.sol\":216:366  function seeLastVisit() external view returns (string memory, address, string memory, uint256){... */\n    tag_4:\n      tag_9\n      tag_10\n      jump\t// in\n    tag_9:\n      mload(0x40)\n      tag_11\n      swap5\n      swap4\n      swap3\n      swap2\n      swap1\n      tag_12\n      jump\t// in\n    tag_11:\n      mload(0x40)\n      dup1\n      swap2\n      sub\n      swap1\n      return\n        /* \"contracts/4_HelloWorld.sol\":394:647  function writeVisit(string memory _name, string memory _message) external {... */\n    tag_8:\n        /* \"contracts/4_HelloWorld.sol\":486:491  _name */\n      dup2\n        /* \"contracts/4_HelloWorld.sol\":479:483  name */\n      0x00\n        /* \"contracts/4_HelloWorld.sol\":479:491  name = _name */\n      swap1\n      dup2\n      tag_14\n      swap2\n      swap1\n      tag_15\n      jump\t// in\n    tag_14:\n      pop\n        /* \"contracts/4_HelloWorld.sol\":511:521  msg.sender */\n      caller\n        /* \"contracts/4_HelloWorld.sol\":502:508  wallet */\n      0x01\n      0x00\n        /* \"contracts/4_HelloWorld.sol\":502:521  wallet = msg.sender */\n      0x0100\n      exp\n      dup2\n      sload\n      dup2\n      0xffffffffffffffffffffffffffffffffffffffff\n      mul\n      not\n      and\n      swap1\n      dup4\n      0xffffffffffffffffffffffffffffffffffffffff\n      and\n      mul\n      or\n      swap1\n      sstore\n      pop\n        /* \"contracts/4_HelloWorld.sol\":574:582  _message */\n      dup1\n        /* \"contracts/4_HelloWorld.sol\":564:571  message */\n      0x02\n        /* \"contracts/4_HelloWorld.sol\":564:582  message = _message */\n      swap1\n      dup2\n      tag_16\n      swap2\n      swap1\n      tag_15\n      jump\t// in\n    tag_16:\n      pop\n        /* \"contracts/4_HelloWorld.sol\":600:615  block.timestamp */\n      timestamp\n        /* \"contracts/4_HelloWorld.sol\":593:597  date */\n      0x03\n        /* \"contracts/4_HelloWorld.sol\":593:615  date = block.timestamp */\n      dup2\n      swap1\n      sstore\n      pop\n        /* \"contracts/4_HelloWorld.sol\":394:647  function writeVisit(string memory _name, string memory _message) external {... */\n      pop\n      pop\n      jump\t// out\n        /* \"contracts/4_HelloWorld.sol\":216:366  function seeLastVisit() external view returns (string memory, address, string memory, uint256){... */\n    tag_10:\n        /* \"contracts/4_HelloWorld.sol\":263:276  string memory */\n      0x60\n        /* \"contracts/4_HelloWorld.sol\":278:285  address */\n      0x00\n        /* \"contracts/4_HelloWorld.sol\":287:300  string memory */\n      0x60\n        /* \"contracts/4_HelloWorld.sol\":302:309  uint256 */\n      0x00\n        /* \"contracts/4_HelloWorld.sol\":329:333  name */\n      dup1\n        /* \"contracts/4_HelloWorld.sol\":335:341  wallet */\n      0x01\n      0x00\n      swap1\n      sload\n      swap1\n      0x0100\n      exp\n      swap1\n      div\n      0xffffffffffffffffffffffffffffffffffffffff\n      and\n        /* \"contracts/4_HelloWorld.sol\":343:350  message */\n      0x02\n        /* \"contracts/4_HelloWorld.sol\":352:356  date */\n      sload(0x03)\n        /* \"contracts/4_HelloWorld.sol\":321:357  return (name, wallet, message, date) */\n      dup4\n      dup1\n      sload\n      tag_18\n      swap1\n      tag_19\n      jump\t// in\n    tag_18:\n      dup1\n      0x1f\n      add\n      0x20\n      dup1\n      swap2\n      div\n      mul\n      0x20\n      add\n      mload(0x40)\n      swap1\n      dup2\n      add\n      0x40\n      mstore\n      dup1\n      swap3\n      swap2\n      swap1\n      dup2\n      dup2\n      mstore\n      0x20\n      add\n      dup3\n      dup1\n      sload\n      tag_20\n      swap1\n      tag_19\n      jump\t// in\n    tag_20:\n      dup1\n      iszero\n      tag_21\n      jumpi\n      dup1\n      0x1f\n      lt\n      tag_22\n      jumpi\n      0x0100\n      dup1\n      dup4\n      sload\n      div\n      mul\n      dup4\n      mstore\n      swap2\n      0x20\n      add\n      swap2\n      jump(tag_21)\n    tag_22:\n      dup3\n      add\n      swap2\n      swap1\n      0x00\n      mstore\n      keccak256(0x00, 0x20)\n      swap1\n    tag_23:\n      dup2\n      sload\n      dup2\n      mstore\n      swap1\n      0x01\n      add\n      swap1\n      0x20\n      add\n      dup1\n      dup4\n      gt\n      tag_23\n      jumpi\n      dup3\n      swap1\n      sub\n      0x1f\n      and\n      dup3\n      add\n      swap2\n    tag_21:\n      pop\n      pop\n      pop\n      pop\n      pop\n      swap4\n      pop\n      dup2\n      dup1\n      sload\n      tag_24\n      swap1\n      tag_19\n      jump\t// in\n    tag_24:\n      dup1\n      0x1f\n      add\n      0x20\n      dup1\n      swap2\n      div\n      mul\n      0x20\n      add\n      mload(0x40)\n      swap1\n      dup2\n      add\n      0x40\n      mstore\n      dup1\n      swap3\n      swap2\n      swap1\n      dup2\n      dup2\n      mstore\n      0x20\n      add\n      dup3\n      dup1\n      sload\n      tag_25\n      swap1\n      tag_19\n      jump\t// in\n    tag_25:\n      dup1\n      iszero\n      tag_26\n      jumpi\n      dup1\n      0x1f\n      lt\n      tag_27\n      jumpi\n      0x0100\n      dup1\n      dup4\n      sload\n      div\n      mul\n      dup4\n      mstore\n      swap2\n      0x20\n      add\n      swap2\n      jump(tag_26)\n    tag_27:\n      dup3\n      add\n      swap2\n      swap1\n      0x00\n      mstore\n      keccak256(0x00, 0x20)\n      swap1\n    tag_28:\n      dup2\n      sload\n      dup2\n      mstore\n      swap1\n      0x01\n      add\n      swap1\n      0x20\n      add\n      dup1\n      dup4\n      gt\n      tag_28\n      jumpi\n      dup3\n      swap1\n      sub\n      0x1f\n      and\n      dup3\n      add\n      swap2\n    tag_26:\n      pop\n      pop\n      pop\n      pop\n      pop\n      swap2\n      pop\n      swap4\n      pop\n      swap4\n      pop\n      swap4\n      pop\n      swap4\n      pop\n        /* \"contracts/4_HelloWorld.sol\":216:366  function seeLastVisit() external view returns (string memory, address, string memory, uint256){... */\n      swap1\n      swap2\n      swap3\n      swap4\n      jump\t// out\n        /* \"#utility.yul\":7:82   */\n    tag_29:\n        /* \"#utility.yul\":40:46   */\n      0x00\n        /* \"#utility.yul\":73:75   */\n      0x40\n        /* \"#utility.yul\":67:76   */\n      mload\n        /* \"#utility.yul\":57:76   */\n      swap1\n      pop\n        /* \"#utility.yul\":7:82   */\n      swap1\n      jump\t// out\n        /* \"#utility.yul\":88:205   */\n    tag_30:\n        /* \"#utility.yul\":197:198   */\n      0x00\n        /* \"#utility.yul\":194:195   */\n      dup1\n        /* \"#utility.yul\":187:199   */\n      revert\n        /* \"#utility.yul\":211:328   */\n    tag_31:\n        /* \"#utility.yul\":320:321   */\n      0x00\n        /* \"#utility.yul\":317:318   */\n      dup1\n        /* \"#utility.yul\":310:322   */\n      revert\n        /* \"#utility.yul\":334:451   */\n    tag_32:\n        /* \"#utility.yul\":443:444   */\n      0x00\n        /* \"#utility.yul\":440:441   */\n      dup1\n        /* \"#utility.yul\":433:445   */\n      revert\n        /* \"#utility.yul\":457:574   */\n    tag_33:\n        /* \"#utility.yul\":566:567   */\n      0x00\n        /* \"#utility.yul\":563:564   */\n      dup1\n        /* \"#utility.yul\":556:568   */\n      revert\n        /* \"#utility.yul\":580:682   */\n    tag_34:\n        /* \"#utility.yul\":621:627   */\n      0x00\n        /* \"#utility.yul\":672:674   */\n      0x1f\n        /* \"#utility.yul\":668:675   */\n      not\n        /* \"#utility.yul\":663:665   */\n      0x1f\n        /* \"#utility.yul\":656:661   */\n      dup4\n        /* \"#utility.yul\":652:666   */\n      add\n        /* \"#utility.yul\":648:676   */\n      and\n        /* \"#utility.yul\":638:676   */\n      swap1\n      pop\n        /* \"#utility.yul\":580:682   */\n      swap2\n      swap1\n      pop\n      jump\t// out\n        /* \"#utility.yul\":688:868   */\n    tag_35:\n        /* \"#utility.yul\":736:813   */\n      0x4e487b7100000000000000000000000000000000000000000000000000000000\n        /* \"#utility.yul\":733:734   */\n      0x00\n        /* \"#utility.yul\":726:814   */\n      mstore\n        /* \"#utility.yul\":833:837   */\n      0x41\n        /* \"#utility.yul\":830:831   */\n      0x04\n        /* \"#utility.yul\":823:838   */\n      mstore\n        /* \"#utility.yul\":857:861   */\n      0x24\n        /* \"#utility.yul\":854:855   */\n      0x00\n        /* \"#utility.yul\":847:862   */\n      revert\n        /* \"#utility.yul\":874:1155   */\n    tag_36:\n        /* \"#utility.yul\":957:984   */\n      tag_76\n        /* \"#utility.yul\":979:983   */\n      dup3\n        /* \"#utility.yul\":957:984   */\n      tag_34\n      jump\t// in\n    tag_76:\n        /* \"#utility.yul\":949:955   */\n      dup2\n        /* \"#utility.yul\":945:985   */\n      add\n        /* \"#utility.yul\":1087:1093   */\n      dup2\n        /* \"#utility.yul\":1075:1085   */\n      dup2\n        /* \"#utility.yul\":1072:1094   */\n      lt\n        /* \"#utility.yul\":1051:1069   */\n      0xffffffffffffffff\n        /* \"#utility.yul\":1039:1049   */\n      dup3\n        /* \"#utility.yul\":1036:1070   */\n      gt\n        /* \"#utility.yul\":1033:1095   */\n      or\n        /* \"#utility.yul\":1030:1118   */\n      iszero\n      tag_77\n      jumpi\n        /* \"#utility.yul\":1098:1116   */\n      tag_78\n      tag_35\n      jump\t// in\n    tag_78:\n        /* \"#utility.yul\":1030:1118   */\n    tag_77:\n        /* \"#utility.yul\":1138:1148   */\n      dup1\n        /* \"#utility.yul\":1134:1136   */\n      0x40\n        /* \"#utility.yul\":1127:1149   */\n      mstore\n        /* \"#utility.yul\":917:1155   */\n      pop\n        /* \"#utility.yul\":874:1155   */\n      pop\n      pop\n      jump\t// out\n        /* \"#utility.yul\":1161:1290   */\n    tag_37:\n        /* \"#utility.yul\":1195:1201   */\n      0x00\n        /* \"#utility.yul\":1222:1242   */\n      tag_80\n      tag_29\n      jump\t// in\n    tag_80:\n        /* \"#utility.yul\":1212:1242   */\n      swap1\n      pop\n        /* \"#utility.yul\":1251:1284   */\n      tag_81\n        /* \"#utility.yul\":1279:1283   */\n      dup3\n        /* \"#utility.yul\":1271:1277   */\n      dup3\n        /* \"#utility.yul\":1251:1284   */\n      tag_36\n      jump\t// in\n    tag_81:\n        /* \"#utility.yul\":1161:1290   */\n      swap2\n      swap1\n      pop\n      jump\t// out\n        /* \"#utility.yul\":1296:1604   */\n    tag_38:\n        /* \"#utility.yul\":1358:1362   */\n      0x00\n        /* \"#utility.yul\":1448:1466   */\n      0xffffffffffffffff\n        /* \"#utility.yul\":1440:1446   */\n      dup3\n        /* \"#utility.yul\":1437:1467   */\n      gt\n        /* \"#utility.yul\":1434:1490   */\n      iszero\n      tag_83\n      jumpi\n        /* \"#utility.yul\":1470:1488   */\n      tag_84\n      tag_35\n      jump\t// in\n    tag_84:\n        /* \"#utility.yul\":1434:1490   */\n    tag_83:\n        /* \"#utility.yul\":1508:1537   */\n      tag_85\n        /* \"#utility.yul\":1530:1536   */\n      dup3\n        /* \"#utility.yul\":1508:1537   */\n      tag_34\n      jump\t// in\n    tag_85:\n        /* \"#utility.yul\":1500:1537   */\n      swap1\n      pop\n        /* \"#utility.yul\":1592:1596   */\n      0x20\n        /* \"#utility.yul\":1586:1590   */\n      dup2\n        /* \"#utility.yul\":1582:1597   */\n      add\n        /* \"#utility.yul\":1574:1597   */\n      swap1\n      pop\n        /* \"#utility.yul\":1296:1604   */\n      swap2\n      swap1\n      pop\n      jump\t// out\n        /* \"#utility.yul\":1610:1758   */\n    tag_39:\n        /* \"#utility.yul\":1708:1714   */\n      dup3\n        /* \"#utility.yul\":1703:1706   */\n      dup2\n        /* \"#utility.yul\":1698:1701   */\n      dup4\n        /* \"#utility.yul\":1685:1715   */\n      calldatacopy\n        /* \"#utility.yul\":1749:1750   */\n      0x00\n        /* \"#utility.yul\":1740:1746   */\n      dup4\n        /* \"#utility.yul\":1735:1738   */\n      dup4\n        /* \"#utility.yul\":1731:1747   */\n      add\n        /* \"#utility.yul\":1724:1751   */\n      mstore\n        /* \"#utility.yul\":1610:1758   */\n      pop\n      pop\n      pop\n      jump\t// out\n        /* \"#utility.yul\":1764:2189   */\n    tag_40:\n        /* \"#utility.yul\":1842:1847   */\n      0x00\n        /* \"#utility.yul\":1867:1933   */\n      tag_88\n        /* \"#utility.yul\":1883:1932   */\n      tag_89\n        /* \"#utility.yul\":1925:1931   */\n      dup5\n        /* \"#utility.yul\":1883:1932   */\n      tag_38\n      jump\t// in\n    tag_89:\n        /* \"#utility.yul\":1867:1933   */\n      tag_37\n      jump\t// in\n    tag_88:\n        /* \"#utility.yul\":1858:1933   */\n      swap1\n      pop\n        /* \"#utility.yul\":1956:1962   */\n      dup3\n        /* \"#utility.yul\":1949:1954   */\n      dup2\n        /* \"#utility.yul\":1942:1963   */\n      mstore\n        /* \"#utility.yul\":1994:1998   */\n      0x20\n        /* \"#utility.yul\":1987:1992   */\n      dup2\n        /* \"#utility.yul\":1983:1999   */\n      add\n        /* \"#utility.yul\":2032:2035   */\n      dup5\n        /* \"#utility.yul\":2023:2029   */\n      dup5\n        /* \"#utility.yul\":2018:2021   */\n      dup5\n        /* \"#utility.yul\":2014:2030   */\n      add\n        /* \"#utility.yul\":2011:2036   */\n      gt\n        /* \"#utility.yul\":2008:2120   */\n      iszero\n      tag_90\n      jumpi\n        /* \"#utility.yul\":2039:2118   */\n      tag_91\n      tag_33\n      jump\t// in\n    tag_91:\n        /* \"#utility.yul\":2008:2120   */\n    tag_90:\n        /* \"#utility.yul\":2129:2183   */\n      tag_92\n        /* \"#utility.yul\":2176:2182   */\n      dup5\n        /* \"#utility.yul\":2171:2174   */\n      dup3\n        /* \"#utility.yul\":2166:2169   */\n      dup6\n        /* \"#utility.yul\":2129:2183   */\n      tag_39\n      jump\t// in\n    tag_92:\n        /* \"#utility.yul\":1848:2189   */\n      pop\n        /* \"#utility.yul\":1764:2189   */\n      swap4\n      swap3\n      pop\n      pop\n      pop\n      jump\t// out\n        /* \"#utility.yul\":2209:2549   */\n    tag_41:\n        /* \"#utility.yul\":2265:2270   */\n      0x00\n        /* \"#utility.yul\":2314:2317   */\n      dup3\n        /* \"#utility.yul\":2307:2311   */\n      0x1f\n        /* \"#utility.yul\":2299:2305   */\n      dup4\n        /* \"#utility.yul\":2295:2312   */\n      add\n        /* \"#utility.yul\":2291:2318   */\n      slt\n        /* \"#utility.yul\":2281:2403   */\n      tag_94\n      jumpi\n        /* \"#utility.yul\":2322:2401   */\n      tag_95\n      tag_32\n      jump\t// in\n    tag_95:\n        /* \"#utility.yul\":2281:2403   */\n    tag_94:\n        /* \"#utility.yul\":2439:2445   */\n      dup2\n        /* \"#utility.yul\":2426:2446   */\n      calldataload\n        /* \"#utility.yul\":2464:2543   */\n      tag_96\n        /* \"#utility.yul\":2539:2542   */\n      dup5\n        /* \"#utility.yul\":2531:2537   */\n      dup3\n        /* \"#utility.yul\":2524:2528   */\n      0x20\n        /* \"#utility.yul\":2516:2522   */\n      dup7\n        /* \"#utility.yul\":2512:2529   */\n      add\n        /* \"#utility.yul\":2464:2543   */\n      tag_40\n      jump\t// in\n    tag_96:\n        /* \"#utility.yul\":2455:2543   */\n      swap2\n      pop\n        /* \"#utility.yul\":2271:2549   */\n      pop\n        /* \"#utility.yul\":2209:2549   */\n      swap3\n      swap2\n      pop\n      pop\n      jump\t// out\n        /* \"#utility.yul\":2555:3389   */\n    tag_7:\n        /* \"#utility.yul\":2643:2649   */\n      0x00\n        /* \"#utility.yul\":2651:2657   */\n      dup1\n        /* \"#utility.yul\":2700:2702   */\n      0x40\n        /* \"#utility.yul\":2688:2697   */\n      dup4\n        /* \"#utility.yul\":2679:2686   */\n      dup6\n        /* \"#utility.yul\":2675:2698   */\n      sub\n        /* \"#utility.yul\":2671:2703   */\n      slt\n        /* \"#utility.yul\":2668:2787   */\n      iszero\n      tag_98\n      jumpi\n        /* \"#utility.yul\":2706:2785   */\n      tag_99\n      tag_30\n      jump\t// in\n    tag_99:\n        /* \"#utility.yul\":2668:2787   */\n    tag_98:\n        /* \"#utility.yul\":2854:2855   */\n      0x00\n        /* \"#utility.yul\":2843:2852   */\n      dup4\n        /* \"#utility.yul\":2839:2856   */\n      add\n        /* \"#utility.yul\":2826:2857   */\n      calldataload\n        /* \"#utility.yul\":2884:2902   */\n      0xffffffffffffffff\n        /* \"#utility.yul\":2876:2882   */\n      dup2\n        /* \"#utility.yul\":2873:2903   */\n      gt\n        /* \"#utility.yul\":2870:2987   */\n      iszero\n      tag_100\n      jumpi\n        /* \"#utility.yul\":2906:2985   */\n      tag_101\n      tag_31\n      jump\t// in\n    tag_101:\n        /* \"#utility.yul\":2870:2987   */\n    tag_100:\n        /* \"#utility.yul\":3011:3074   */\n      tag_102\n        /* \"#utility.yul\":3066:3073   */\n      dup6\n        /* \"#utility.yul\":3057:3063   */\n      dup3\n        /* \"#utility.yul\":3046:3055   */\n      dup7\n        /* \"#utility.yul\":3042:3064   */\n      add\n        /* \"#utility.yul\":3011:3074   */\n      tag_41\n      jump\t// in\n    tag_102:\n        /* \"#utility.yul\":3001:3074   */\n      swap3\n      pop\n        /* \"#utility.yul\":2797:3084   */\n      pop\n        /* \"#utility.yul\":3151:3153   */\n      0x20\n        /* \"#utility.yul\":3140:3149   */\n      dup4\n        /* \"#utility.yul\":3136:3154   */\n      add\n        /* \"#utility.yul\":3123:3155   */\n      calldataload\n        /* \"#utility.yul\":3182:3200   */\n      0xffffffffffffffff\n        /* \"#utility.yul\":3174:3180   */\n      dup2\n        /* \"#utility.yul\":3171:3201   */\n      gt\n        /* \"#utility.yul\":3168:3285   */\n      iszero\n      tag_103\n      jumpi\n        /* \"#utility.yul\":3204:3283   */\n      tag_104\n      tag_31\n      jump\t// in\n    tag_104:\n        /* \"#utility.yul\":3168:3285   */\n    tag_103:\n        /* \"#utility.yul\":3309:3372   */\n      tag_105\n        /* \"#utility.yul\":3364:3371   */\n      dup6\n        /* \"#utility.yul\":3355:3361   */\n      dup3\n        /* \"#utility.yul\":3344:3353   */\n      dup7\n        /* \"#utility.yul\":3340:3362   */\n      add\n        /* \"#utility.yul\":3309:3372   */\n      tag_41\n      jump\t// in\n    tag_105:\n        /* \"#utility.yul\":3299:3372   */\n      swap2\n      pop\n        /* \"#utility.yul\":3094:3382   */\n      pop\n        /* \"#utility.yul\":2555:3389   */\n      swap3\n      pop\n      swap3\n      swap1\n      pop\n      jump\t// out\n        /* \"#utility.yul\":3395:3494   */\n    tag_42:\n        /* \"#utility.yul\":3447:3453   */\n      0x00\n        /* \"#utility.yul\":3481:3486   */\n      dup2\n        /* \"#utility.yul\":3475:3487   */\n      mload\n        /* \"#utility.yul\":3465:3487   */\n      swap1\n      pop\n        /* \"#utility.yul\":3395:3494   */\n      swap2\n      swap1\n      pop\n      jump\t// out\n        /* \"#utility.yul\":3500:3669   */\n    tag_43:\n        /* \"#utility.yul\":3584:3595   */\n      0x00\n        /* \"#utility.yul\":3618:3624   */\n      dup3\n        /* \"#utility.yul\":3613:3616   */\n      dup3\n        /* \"#utility.yul\":3606:3625   */\n      mstore\n        /* \"#utility.yul\":3658:3662   */\n      0x20\n        /* \"#utility.yul\":3653:3656   */\n      dup3\n        /* \"#utility.yul\":3649:3663   */\n      add\n        /* \"#utility.yul\":3634:3663   */\n      swap1\n      pop\n        /* \"#utility.yul\":3500:3669   */\n      swap3\n      swap2\n      pop\n      pop\n      jump\t// out\n        /* \"#utility.yul\":3675:3814   */\n    tag_44:\n        /* \"#utility.yul\":3764:3770   */\n      dup3\n        /* \"#utility.yul\":3759:3762   */\n      dup2\n        /* \"#utility.yul\":3754:3757   */\n      dup4\n        /* \"#utility.yul\":3748:3771   */\n      mcopy\n        /* \"#utility.yul\":3805:3806   */\n      0x00\n        /* \"#utility.yul\":3796:3802   */\n      dup4\n        /* \"#utility.yul\":3791:3794   */\n      dup4\n        /* \"#utility.yul\":3787:3803   */\n      add\n        /* \"#utility.yul\":3780:3807   */\n      mstore\n        /* \"#utility.yul\":3675:3814   */\n      pop\n      pop\n      pop\n      jump\t// out\n        /* \"#utility.yul\":3820:4197   */\n    tag_45:\n        /* \"#utility.yul\":3908:3911   */\n      0x00\n        /* \"#utility.yul\":3936:3975   */\n      tag_110\n        /* \"#utility.yul\":3969:3974   */\n      dup3\n        /* \"#utility.yul\":3936:3975   */\n      tag_42\n      jump\t// in\n    tag_110:\n        /* \"#utility.yul\":3991:4062   */\n      tag_111\n        /* \"#utility.yul\":4055:4061   */\n      dup2\n        /* \"#utility.yul\":4050:4053   */\n      dup6\n        /* \"#utility.yul\":3991:4062   */\n      tag_43\n      jump\t// in\n    tag_111:\n        /* \"#utility.yul\":3984:4062   */\n      swap4\n      pop\n        /* \"#utility.yul\":4071:4136   */\n      tag_112\n        /* \"#utility.yul\":4129:4135   */\n      dup2\n        /* \"#utility.yul\":4124:4127   */\n      dup6\n        /* \"#utility.yul\":4117:4121   */\n      0x20\n        /* \"#utility.yul\":4110:4115   */\n      dup7\n        /* \"#utility.yul\":4106:4122   */\n      add\n        /* \"#utility.yul\":4071:4136   */\n      tag_44\n      jump\t// in\n    tag_112:\n        /* \"#utility.yul\":4161:4190   */\n      tag_113\n        /* \"#utility.yul\":4183:4189   */\n      dup2\n        /* \"#utility.yul\":4161:4190   */\n      tag_34\n      jump\t// in\n    tag_113:\n        /* \"#utility.yul\":4156:4159   */\n      dup5\n        /* \"#utility.yul\":4152:4191   */\n      add\n        /* \"#utility.yul\":4145:4191   */\n      swap2\n      pop\n        /* \"#utility.yul\":3912:4197   */\n      pop\n        /* \"#utility.yul\":3820:4197   */\n      swap3\n      swap2\n      pop\n      pop\n      jump\t// out\n        /* \"#utility.yul\":4203:4329   */\n    tag_46:\n        /* \"#utility.yul\":4240:4247   */\n      0x00\n        /* \"#utility.yul\":4280:4322   */\n      0xffffffffffffffffffffffffffffffffffffffff\n        /* \"#utility.yul\":4273:4278   */\n      dup3\n        /* \"#utility.yul\":4269:4323   */\n      and\n        /* \"#utility.yul\":4258:4323   */\n      swap1\n      pop\n        /* \"#utility.yul\":4203:4329   */\n      swap2\n      swap1\n      pop\n      jump\t// out\n        /* \"#utility.yul\":4335:4431   */\n    tag_47:\n        /* \"#utility.yul\":4372:4379   */\n      0x00\n        /* \"#utility.yul\":4401:4425   */\n      tag_116\n        /* \"#utility.yul\":4419:4424   */\n      dup3\n        /* \"#utility.yul\":4401:4425   */\n      tag_46\n      jump\t// in\n    tag_116:\n        /* \"#utility.yul\":4390:4425   */\n      swap1\n      pop\n        /* \"#utility.yul\":4335:4431   */\n      swap2\n      swap1\n      pop\n      jump\t// out\n        /* \"#utility.yul\":4437:4555   */\n    tag_48:\n        /* \"#utility.yul\":4524:4548   */\n      tag_118\n        /* \"#utility.yul\":4542:4547   */\n      dup2\n        /* \"#utility.yul\":4524:4548   */\n      tag_47\n      jump\t// in\n    tag_118:\n        /* \"#utility.yul\":4519:4522   */\n      dup3\n        /* \"#utility.yul\":4512:4549   */\n      mstore\n        /* \"#utility.yul\":4437:4555   */\n      pop\n      pop\n      jump\t// out\n        /* \"#utility.yul\":4561:4638   */\n    tag_49:\n        /* \"#utility.yul\":4598:4605   */\n      0x00\n        /* \"#utility.yul\":4627:4632   */\n      dup2\n        /* \"#utility.yul\":4616:4632   */\n      swap1\n      pop\n        /* \"#utility.yul\":4561:4638   */\n      swap2\n      swap1\n      pop\n      jump\t// out\n        /* \"#utility.yul\":4644:4762   */\n    tag_50:\n        /* \"#utility.yul\":4731:4755   */\n      tag_121\n        /* \"#utility.yul\":4749:4754   */\n      dup2\n        /* \"#utility.yul\":4731:4755   */\n      tag_49\n      jump\t// in\n    tag_121:\n        /* \"#utility.yul\":4726:4729   */\n      dup3\n        /* \"#utility.yul\":4719:4756   */\n      mstore\n        /* \"#utility.yul\":4644:4762   */\n      pop\n      pop\n      jump\t// out\n        /* \"#utility.yul\":4768:5503   */\n    tag_12:\n        /* \"#utility.yul\":4985:4989   */\n      0x00\n        /* \"#utility.yul\":5023:5026   */\n      0x80\n        /* \"#utility.yul\":5012:5021   */\n      dup3\n        /* \"#utility.yul\":5008:5027   */\n      add\n        /* \"#utility.yul\":5000:5027   */\n      swap1\n      pop\n        /* \"#utility.yul\":5073:5082   */\n      dup2\n        /* \"#utility.yul\":5067:5071   */\n      dup2\n        /* \"#utility.yul\":5063:5083   */\n      sub\n        /* \"#utility.yul\":5059:5060   */\n      0x00\n        /* \"#utility.yul\":5048:5057   */\n      dup4\n        /* \"#utility.yul\":5044:5061   */\n      add\n        /* \"#utility.yul\":5037:5084   */\n      mstore\n        /* \"#utility.yul\":5101:5179   */\n      tag_123\n        /* \"#utility.yul\":5174:5178   */\n      dup2\n        /* \"#utility.yul\":5165:5171   */\n      dup8\n        /* \"#utility.yul\":5101:5179   */\n      tag_45\n      jump\t// in\n    tag_123:\n        /* \"#utility.yul\":5093:5179   */\n      swap1\n      pop\n        /* \"#utility.yul\":5189:5261   */\n      tag_124\n        /* \"#utility.yul\":5257:5259   */\n      0x20\n        /* \"#utility.yul\":5246:5255   */\n      dup4\n        /* \"#utility.yul\":5242:5260   */\n      add\n        /* \"#utility.yul\":5233:5239   */\n      dup7\n        /* \"#utility.yul\":5189:5261   */\n      tag_48\n      jump\t// in\n    tag_124:\n        /* \"#utility.yul\":5308:5317   */\n      dup2\n        /* \"#utility.yul\":5302:5306   */\n      dup2\n        /* \"#utility.yul\":5298:5318   */\n      sub\n        /* \"#utility.yul\":5293:5295   */\n      0x40\n        /* \"#utility.yul\":5282:5291   */\n      dup4\n        /* \"#utility.yul\":5278:5296   */\n      add\n        /* \"#utility.yul\":5271:5319   */\n      mstore\n        /* \"#utility.yul\":5336:5414   */\n      tag_125\n        /* \"#utility.yul\":5409:5413   */\n      dup2\n        /* \"#utility.yul\":5400:5406   */\n      dup6\n        /* \"#utility.yul\":5336:5414   */\n      tag_45\n      jump\t// in\n    tag_125:\n        /* \"#utility.yul\":5328:5414   */\n      swap1\n      pop\n        /* \"#utility.yul\":5424:5496   */\n      tag_126\n        /* \"#utility.yul\":5492:5494   */\n      0x60\n        /* \"#utility.yul\":5481:5490   */\n      dup4\n        /* \"#utility.yul\":5477:5495   */\n      add\n        /* \"#utility.yul\":5468:5474   */\n      dup5\n        /* \"#utility.yul\":5424:5496   */\n      tag_50\n      jump\t// in\n    tag_126:\n        /* \"#utility.yul\":4768:5503   */\n      swap6\n      swap5\n      pop\n      pop\n      pop\n      pop\n      pop\n      jump\t// out\n        /* \"#utility.yul\":5509:5689   */\n    tag_51:\n        /* \"#utility.yul\":5557:5634   */\n      0x4e487b7100000000000000000000000000000000000000000000000000000000\n        /* \"#utility.yul\":5554:5555   */\n      0x00\n        /* \"#utility.yul\":5547:5635   */\n      mstore\n        /* \"#utility.yul\":5654:5658   */\n      0x22\n        /* \"#utility.yul\":5651:5652   */\n      0x04\n        /* \"#utility.yul\":5644:5659   */\n      mstore\n        /* \"#utility.yul\":5678:5682   */\n      0x24\n        /* \"#utility.yul\":5675:5676   */\n      0x00\n        /* \"#utility.yul\":5668:5683   */\n      revert\n        /* \"#utility.yul\":5695:6015   */\n    tag_19:\n        /* \"#utility.yul\":5739:5745   */\n      0x00\n        /* \"#utility.yul\":5776:5777   */\n      0x02\n        /* \"#utility.yul\":5770:5774   */\n      dup3\n        /* \"#utility.yul\":5766:5778   */\n      div\n        /* \"#utility.yul\":5756:5778   */\n      swap1\n      pop\n        /* \"#utility.yul\":5823:5824   */\n      0x01\n        /* \"#utility.yul\":5817:5821   */\n      dup3\n        /* \"#utility.yul\":5813:5825   */\n      and\n        /* \"#utility.yul\":5844:5862   */\n      dup1\n        /* \"#utility.yul\":5834:5915   */\n      tag_129\n      jumpi\n        /* \"#utility.yul\":5900:5904   */\n      0x7f\n        /* \"#utility.yul\":5892:5898   */\n      dup3\n        /* \"#utility.yul\":5888:5905   */\n      and\n        /* \"#utility.yul\":5878:5905   */\n      swap2\n      pop\n        /* \"#utility.yul\":5834:5915   */\n    tag_129:\n        /* \"#utility.yul\":5962:5964   */\n      0x20\n        /* \"#utility.yul\":5954:5960   */\n      dup3\n        /* \"#utility.yul\":5951:5965   */\n      lt\n        /* \"#utility.yul\":5931:5949   */\n      dup2\n        /* \"#utility.yul\":5928:5966   */\n      sub\n        /* \"#utility.yul\":5925:6009   */\n      tag_130\n      jumpi\n        /* \"#utility.yul\":5981:5999   */\n      tag_131\n      tag_51\n      jump\t// in\n    tag_131:\n        /* \"#utility.yul\":5925:6009   */\n    tag_130:\n        /* \"#utility.yul\":5746:6015   */\n      pop\n        /* \"#utility.yul\":5695:6015   */\n      swap2\n      swap1\n      pop\n      jump\t// out\n        /* \"#utility.yul\":6021:6162   */\n    tag_52:\n        /* \"#utility.yul\":6070:6074   */\n      0x00\n        /* \"#utility.yul\":6093:6096   */\n      dup2\n        /* \"#utility.yul\":6085:6096   */\n      swap1\n      pop\n        /* \"#utility.yul\":6116:6119   */\n      dup2\n        /* \"#utility.yul\":6113:6114   */\n      0x00\n        /* \"#utility.yul\":6106:6120   */\n      mstore\n        /* \"#utility.yul\":6150:6154   */\n      0x20\n        /* \"#utility.yul\":6147:6148   */\n      0x00\n        /* \"#utility.yul\":6137:6155   */\n      keccak256\n        /* \"#utility.yul\":6129:6155   */\n      swap1\n      pop\n        /* \"#utility.yul\":6021:6162   */\n      swap2\n      swap1\n      pop\n      jump\t// out\n        /* \"#utility.yul\":6168:6261   */\n    tag_53:\n        /* \"#utility.yul\":6205:6211   */\n      0x00\n        /* \"#utility.yul\":6252:6254   */\n      0x20\n        /* \"#utility.yul\":6247:6249   */\n      0x1f\n        /* \"#utility.yul\":6240:6245   */\n      dup4\n        /* \"#utility.yul\":6236:6250   */\n      add\n        /* \"#utility.yul\":6232:6255   */\n      div\n        /* \"#utility.yul\":6222:6255   */\n      swap1\n      pop\n        /* \"#utility.yul\":6168:6261   */\n      swap2\n      swap1\n      pop\n      jump\t// out\n        /* \"#utility.yul\":6267:6374   */\n    tag_54:\n        /* \"#utility.yul\":6311:6319   */\n      0x00\n        /* \"#utility.yul\":6361:6366   */\n      dup3\n        /* \"#utility.yul\":6355:6359   */\n      dup3\n        /* \"#utility.yul\":6351:6367   */\n      shl\n        /* \"#utility.yul\":6330:6367   */\n      swap1\n      pop\n        /* \"#utility.yul\":6267:6374   */\n      swap3\n      swap2\n      pop\n      pop\n      jump\t// out\n        /* \"#utility.yul\":6380:6773   */\n    tag_55:\n        /* \"#utility.yul\":6449:6455   */\n      0x00\n        /* \"#utility.yul\":6499:6500   */\n      0x08\n        /* \"#utility.yul\":6487:6497   */\n      dup4\n        /* \"#utility.yul\":6483:6501   */\n      mul\n        /* \"#utility.yul\":6522:6619   */\n      tag_136\n        /* \"#utility.yul\":6552:6618   */\n      0xffffffffffffffffffffffffffffffffffffffffffffffffffffffffffffffff\n        /* \"#utility.yul\":6541:6550   */\n      dup3\n        /* \"#utility.yul\":6522:6619   */\n      tag_54\n      jump\t// in\n    tag_136:\n        /* \"#utility.yul\":6640:6679   */\n      tag_137\n        /* \"#utility.yul\":6670:6678   */\n      dup7\n        /* \"#utility.yul\":6659:6668   */\n      dup4\n        /* \"#utility.yul\":6640:6679   */\n      tag_54\n      jump\t// in\n    tag_137:\n        /* \"#utility.yul\":6628:6679   */\n      swap6\n      pop\n        /* \"#utility.yul\":6712:6716   */\n      dup1\n        /* \"#utility.yul\":6708:6717   */\n      not\n        /* \"#utility.yul\":6701:6706   */\n      dup5\n        /* \"#utility.yul\":6697:6718   */\n      and\n        /* \"#utility.yul\":6688:6718   */\n      swap4\n      pop\n        /* \"#utility.yul\":6761:6765   */\n      dup1\n        /* \"#utility.yul\":6751:6759   */\n      dup7\n        /* \"#utility.yul\":6747:6766   */\n      and\n        /* \"#utility.yul\":6740:6745   */\n      dup5\n        /* \"#utility.yul\":6737:6767   */\n      or\n        /* \"#utility.yul\":6727:6767   */\n      swap3\n      pop\n        /* \"#utility.yul\":6456:6773   */\n      pop\n      pop\n        /* \"#utility.yul\":6380:6773   */\n      swap4\n      swap3\n      pop\n      pop\n      pop\n      jump\t// out\n        /* \"#utility.yul\":6779:6839   */\n    tag_56:\n        /* \"#utility.yul\":6807:6810   */\n      0x00\n        /* \"#utility.yul\":6828:6833   */\n      dup2\n        /* \"#utility.yul\":6821:6833   */\n      swap1\n      pop\n        /* \"#utility.yul\":6779:6839   */\n      swap2\n      swap1\n      pop\n      jump\t// out\n        /* \"#utility.yul\":6845:6987   */\n    tag_57:\n        /* \"#utility.yul\":6895:6904   */\n      0x00\n        /* \"#utility.yul\":6928:6981   */\n      tag_140\n        /* \"#utility.yul\":6946:6980   */\n      tag_141\n        /* \"#utility.yul\":6955:6979   */\n      tag_142\n        /* \"#utility.yul\":6973:6978   */\n      dup5\n        /* \"#utility.yul\":6955:6979   */\n      tag_49\n      jump\t// in\n    tag_142:\n        /* \"#utility.yul\":6946:6980   */\n      tag_56\n      jump\t// in\n    tag_141:\n        /* \"#utility.yul\":6928:6981   */\n      tag_49\n      jump\t// in\n    tag_140:\n        /* \"#utility.yul\":6915:6981   */\n      swap1\n      pop\n        /* \"#utility.yul\":6845:6987   */\n      swap2\n      swap1\n      pop\n      jump\t// out\n        /* \"#utility.yul\":6993:7068   */\n    tag_58:\n        /* \"#utility.yul\":7036:7039   */\n      0x00\n        /* \"#utility.yul\":7057:7062   */\n      dup2\n        /* \"#utility.yul\":7050:7062   */\n      swap1\n      pop\n        /* \"#utility.yul\":6993:7068   */\n      swap2\n      swap1\n      pop\n      jump\t// out\n        /* \"#utility.yul\":7074:7343   */\n    tag_59:\n        /* \"#utility.yul\":7184:7223   */\n      tag_145\n        /* \"#utility.yul\":7215:7222   */\n      dup4\n        /* \"#utility.yul\":7184:7223   */\n      tag_57\n      jump\t// in\n    tag_145:\n        /* \"#utility.yul\":7245:7336   */\n      tag_146\n        /* \"#utility.yul\":7294:7335   */\n      tag_147\n        /* \"#utility.yul\":7318:7334   */\n      dup3\n        /* \"#utility.yul\":7294:7335   */\n      tag_58\n      jump\t// in\n    tag_147:\n        /* \"#utility.yul\":7286:7292   */\n      dup5\n        /* \"#utility.yul\":7279:7283   */\n      dup5\n        /* \"#utility.yul\":7273:7284   */\n      sload\n        /* \"#utility.yul\":7245:7336   */\n      tag_55\n      jump\t// in\n    tag_146:\n        /* \"#utility.yul\":7239:7243   */\n      dup3\n        /* \"#utility.yul\":7232:7337   */\n      sstore\n        /* \"#utility.yul\":7150:7343   */\n      pop\n        /* \"#utility.yul\":7074:7343   */\n      pop\n      pop\n      pop\n      jump\t// out\n        /* \"#utility.yul\":7349:7422   */\n    tag_60:\n        /* \"#utility.yul\":7394:7397   */\n      0x00\n        /* \"#utility.yul\":7349:7422   */\n      swap1\n      jump\t// out\n        /* \"#utility.yul\":7428:7617   */\n    tag_61:\n        /* \"#utility.yul\":7505:7537   */\n      tag_150\n      tag_60\n      jump\t// in\n    tag_150:\n        /* \"#utility.yul\":7546:7611   */\n      tag_151\n        /* \"#utility.yul\":7604:7610   */\n      dup2\n        /* \"#utility.yul\":7596:7602   */\n      dup5\n        /* \"#utility.yul\":7590:7594   */\n      dup5\n        /* \"#utility.yul\":7546:7611   */\n      tag_59\n      jump\t// in\n    tag_151:\n        /* \"#utility.yul\":7481:7617   */\n      pop\n        /* \"#utility.yul\":7428:7617   */\n      pop\n      pop\n      jump\t// out\n        /* \"#utility.yul\":7623:7809   */\n    tag_62:\n        /* \"#utility.yul\":7683:7803   */\n    tag_153:\n        /* \"#utility.yul\":7700:7703   */\n      dup2\n        /* \"#utility.yul\":7693:7698   */\n      dup2\n        /* \"#utility.yul\":7690:7704   */\n      lt\n        /* \"#utility.yul\":7683:7803   */\n      iszero\n      tag_155\n      jumpi\n        /* \"#utility.yul\":7754:7793   */\n      tag_156\n        /* \"#utility.yul\":7791:7792   */\n      0x00\n        /* \"#utility.yul\":7784:7789   */\n      dup3\n        /* \"#utility.yul\":7754:7793   */\n      tag_61\n      jump\t// in\n    tag_156:\n        /* \"#utility.yul\":7727:7728   */\n      0x01\n        /* \"#utility.yul\":7720:7725   */\n      dup2\n        /* \"#utility.yul\":7716:7729   */\n      add\n        /* \"#utility.yul\":7707:7729   */\n      swap1\n      pop\n        /* \"#utility.yul\":7683:7803   */\n      jump(tag_153)\n    tag_155:\n        /* \"#utility.yul\":7623:7809   */\n      pop\n      pop\n      jump\t// out\n        /* \"#utility.yul\":7815:8358   */\n    tag_63:\n        /* \"#utility.yul\":7916:7918   */\n      0x1f\n        /* \"#utility.yul\":7911:7914   */\n      dup3\n        /* \"#utility.yul\":7908:7919   */\n      gt\n        /* \"#utility.yul\":7905:8351   */\n      iszero\n      tag_158\n      jumpi\n        /* \"#utility.yul\":7950:7988   */\n      tag_159\n        /* \"#utility.yul\":7982:7987   */\n      dup2\n        /* \"#utility.yul\":7950:7988   */\n      tag_52\n      jump\t// in\n    tag_159:\n        /* \"#utility.yul\":8034:8063   */\n      tag_160\n        /* \"#utility.yul\":8052:8062   */\n      dup5\n        /* \"#utility.yul\":8034:8063   */\n      tag_53\n      jump\t// in\n    tag_160:\n        /* \"#utility.yul\":8024:8032   */\n      dup2\n        /* \"#utility.yul\":8020:8064   */\n      add\n        /* \"#utility.yul\":8217:8219   */\n      0x20\n        /* \"#utility.yul\":8205:8215   */\n      dup6\n        /* \"#utility.yul\":8202:8220   */\n      lt\n        /* \"#utility.yul\":8199:8248   */\n      iszero\n      tag_161\n      jumpi\n        /* \"#utility.yul\":8238:8246   */\n      dup2\n        /* \"#utility.yul\":8223:8246   */\n      swap1\n      pop\n        /* \"#utility.yul\":8199:8248   */\n    tag_161:\n        /* \"#utility.yul\":8261:8341   */\n      tag_162\n        /* \"#utility.yul\":8317:8339   */\n      tag_163\n        /* \"#utility.yul\":8335:8338   */\n      dup6\n        /* \"#utility.yul\":8317:8339   */\n      tag_53\n      jump\t// in\n    tag_163:\n        /* \"#utility.yul\":8307:8315   */\n      dup4\n        /* \"#utility.yul\":8303:8340   */\n      add\n        /* \"#utility.yul\":8290:8301   */\n      dup3\n        /* \"#utility.yul\":8261:8341   */\n      tag_62\n      jump\t// in\n    tag_162:\n        /* \"#utility.yul\":7920:8351   */\n      pop\n      pop\n        /* \"#utility.yul\":7905:8351   */\n    tag_158:\n        /* \"#utility.yul\":7815:8358   */\n      pop\n      pop\n      pop\n      jump\t// out\n        /* \"#utility.yul\":8364:8481   */\n    tag_64:\n        /* \"#utility.yul\":8418:8426   */\n      0x00\n        /* \"#utility.yul\":8468:8473   */\n      dup3\n        /* \"#utility.yul\":8462:8466   */\n      dup3\n        /* \"#utility.yul\":8458:8474   */\n      shr\n        /* \"#utility.yul\":8437:8474   */\n      swap1\n      pop\n        /* \"#utility.yul\":8364:8481   */\n      swap3\n      swap2\n      pop\n      pop\n      jump\t// out\n        /* \"#utility.yul\":8487:8656   */\n    tag_65:\n        /* \"#utility.yul\":8531:8537   */\n      0x00\n        /* \"#utility.yul\":8564:8615   */\n      tag_166\n        /* \"#utility.yul\":8612:8613   */\n      0x00\n        /* \"#utility.yul\":8608:8614   */\n      not\n        /* \"#utility.yul\":8600:8605   */\n      dup5\n        /* \"#utility.yul\":8597:8598   */\n      0x08\n        /* \"#utility.yul\":8593:8606   */\n      mul\n        /* \"#utility.yul\":8564:8615   */\n      tag_64\n      jump\t// in\n    tag_166:\n        /* \"#utility.yul\":8560:8616   */\n      not\n        /* \"#utility.yul\":8645:8649   */\n      dup1\n        /* \"#utility.yul\":8639:8643   */\n      dup4\n        /* \"#utility.yul\":8635:8650   */\n      and\n        /* \"#utility.yul\":8625:8650   */\n      swap2\n      pop\n        /* \"#utility.yul\":8538:8656   */\n      pop\n        /* \"#utility.yul\":8487:8656   */\n      swap3\n      swap2\n      pop\n      pop\n      jump\t// out\n        /* \"#utility.yul\":8661:8956   */\n    tag_66:\n        /* \"#utility.yul\":8737:8741   */\n      0x00\n        /* \"#utility.yul\":8883:8912   */\n      tag_168\n        /* \"#utility.yul\":8908:8911   */\n      dup4\n        /* \"#utility.yul\":8902:8906   */\n      dup4\n        /* \"#utility.yul\":8883:8912   */\n      tag_65\n      jump\t// in\n    tag_168:\n        /* \"#utility.yul\":8875:8912   */\n      swap2\n      pop\n        /* \"#utility.yul\":8945:8948   */\n      dup3\n        /* \"#utility.yul\":8942:8943   */\n      0x02\n        /* \"#utility.yul\":8938:8949   */\n      mul\n        /* \"#utility.yul\":8932:8936   */\n      dup3\n        /* \"#utility.yul\":8929:8950   */\n      or\n        /* \"#utility.yul\":8921:8950   */\n      swap1\n      pop\n        /* \"#utility.yul\":8661:8956   */\n      swap3\n      swap2\n      pop\n      pop\n      jump\t// out\n        /* \"#utility.yul\":8961:10356   */\n    tag_15:\n        /* \"#utility.yul\":9078:9115   */\n      tag_170\n        /* \"#utility.yul\":9111:9114   */\n      dup3\n        /* \"#utility.yul\":9078:9115   */\n      tag_42\n      jump\t// in\n    tag_170:\n        /* \"#utility.yul\":9180:9198   */\n      0xffffffffffffffff\n        /* \"#utility.yul\":9172:9178   */\n      dup2\n        /* \"#utility.yul\":9169:9199   */\n      gt\n        /* \"#utility.yul\":9166:9222   */\n      iszero\n      tag_171\n      jumpi\n        /* \"#utility.yul\":9202:9220   */\n      tag_172\n      tag_35\n      jump\t// in\n    tag_172:\n        /* \"#utility.yul\":9166:9222   */\n    tag_171:\n        /* \"#utility.yul\":9246:9284   */\n      tag_173\n        /* \"#utility.yul\":9278:9282   */\n      dup3\n        /* \"#utility.yul\":9272:9283   */\n      sload\n        /* \"#utility.yul\":9246:9284   */\n      tag_19\n      jump\t// in\n    tag_173:\n        /* \"#utility.yul\":9331:9398   */\n      tag_174\n        /* \"#utility.yul\":9391:9397   */\n      dup3\n        /* \"#utility.yul\":9383:9389   */\n      dup3\n        /* \"#utility.yul\":9377:9381   */\n      dup6\n        /* \"#utility.yul\":9331:9398   */\n      tag_63\n      jump\t// in\n    tag_174:\n        /* \"#utility.yul\":9425:9426   */\n      0x00\n        /* \"#utility.yul\":9449:9453   */\n      0x20\n        /* \"#utility.yul\":9436:9453   */\n      swap1\n      pop\n        /* \"#utility.yul\":9481:9483   */\n      0x1f\n        /* \"#utility.yul\":9473:9479   */\n      dup4\n        /* \"#utility.yul\":9470:9484   */\n      gt\n        /* \"#utility.yul\":9498:9499   */\n      0x01\n        /* \"#utility.yul\":9493:10111   */\n      dup2\n      eq\n      tag_176\n      jumpi\n        /* \"#utility.yul\":10155:10156   */\n      0x00\n        /* \"#utility.yul\":10172:10178   */\n      dup5\n        /* \"#utility.yul\":10169:10246   */\n      iszero\n      tag_177\n      jumpi\n        /* \"#utility.yul\":10221:10230   */\n      dup3\n        /* \"#utility.yul\":10216:10219   */\n      dup8\n        /* \"#utility.yul\":10212:10231   */\n      add\n        /* \"#utility.yul\":10206:10232   */\n      mload\n        /* \"#utility.yul\":10197:10232   */\n      swap1\n      pop\n        /* \"#utility.yul\":10169:10246   */\n    tag_177:\n        /* \"#utility.yul\":10272:10339   */\n      tag_178\n        /* \"#utility.yul\":10332:10338   */\n      dup6\n        /* \"#utility.yul\":10325:10330   */\n      dup3\n        /* \"#utility.yul\":10272:10339   */\n      tag_66\n      jump\t// in\n    tag_178:\n        /* \"#utility.yul\":10266:10270   */\n      dup7\n        /* \"#utility.yul\":10259:10340   */\n      sstore\n        /* \"#utility.yul\":10128:10350   */\n      pop\n        /* \"#utility.yul\":9463:10350   */\n      jump(tag_175)\n        /* \"#utility.yul\":9493:10111   */\n    tag_176:\n        /* \"#utility.yul\":9545:9549   */\n      0x1f\n        /* \"#utility.yul\":9541:9550   */\n      not\n        /* \"#utility.yul\":9533:9539   */\n      dup5\n        /* \"#utility.yul\":9529:9551   */\n      and\n        /* \"#utility.yul\":9579:9616   */\n      tag_179\n        /* \"#utility.yul\":9611:9615   */\n      dup7\n        /* \"#utility.yul\":9579:9616   */\n      tag_52\n      jump\t// in\n    tag_179:\n        /* \"#utility.yul\":9638:9639   */\n      0x00\n        /* \"#utility.yul\":9652:9860   */\n    tag_180:\n        /* \"#utility.yul\":9666:9673   */\n      dup3\n        /* \"#utility.yul\":9663:9664   */\n      dup2\n        /* \"#utility.yul\":9660:9674   */\n      lt\n        /* \"#utility.yul\":9652:9860   */\n      iszero\n      tag_182\n      jumpi\n        /* \"#utility.yul\":9745:9754   */\n      dup5\n        /* \"#utility.yul\":9740:9743   */\n      dup10\n        /* \"#utility.yul\":9736:9755   */\n      add\n        /* \"#utility.yul\":9730:9756   */\n      mload\n        /* \"#utility.yul\":9722:9728   */\n      dup3\n        /* \"#utility.yul\":9715:9757   */\n      sstore\n        /* \"#utility.yul\":9796:9797   */\n      0x01\n        /* \"#utility.yul\":9788:9794   */\n      dup3\n        /* \"#utility.yul\":9784:9798   */\n      add\n        /* \"#utility.yul\":9774:9798   */\n      swap2\n      pop\n        /* \"#utility.yul\":9843:9845   */\n      0x20\n        /* \"#utility.yul\":9832:9841   */\n      dup6\n        /* \"#utility.yul\":9828:9846   */\n      add\n        /* \"#utility.yul\":9815:9846   */\n      swap5\n      pop\n        /* \"#utility.yul\":9689:9693   */\n      0x20\n        /* \"#utility.yul\":9686:9687   */\n      dup2\n        /* \"#utility.yul\":9682:9694   */\n      add\n        /* \"#utility.yul\":9677:9694   */\n      swap1\n      pop\n        /* \"#utility.yul\":9652:9860   */\n      jump(tag_180)\n    tag_182:\n        /* \"#utility.yul\":9888:9894   */\n      dup7\n        /* \"#utility.yul\":9879:9886   */\n      dup4\n        /* \"#utility.yul\":9876:9895   */\n      lt\n        /* \"#utility.yul\":9873:10052   */\n      iszero\n      tag_183\n      jumpi\n        /* \"#utility.yul\":9946:9955   */\n      dup5\n        /* \"#utility.yul\":9941:9944   */\n      dup10\n        /* \"#utility.yul\":9937:9956   */\n      add\n        /* \"#utility.yul\":9931:9957   */\n      mload\n        /* \"#utility.yul\":9989:10037   */\n      tag_184\n        /* \"#utility.yul\":10031:10035   */\n      0x1f\n        /* \"#utility.yul\":10023:10029   */\n      dup10\n        /* \"#utility.yul\":10019:10036   */\n      and\n        /* \"#utility.yul\":10008:10017   */\n      dup3\n        /* \"#utility.yul\":9989:10037   */\n      tag_65\n      jump\t// in\n    tag_184:\n        /* \"#utility.yul\":9981:9987   */\n      dup4\n        /* \"#utility.yul\":9974:10038   */\n      sstore\n        /* \"#utility.yul\":9896:10052   */\n      pop\n        /* \"#utility.yul\":9873:10052   */\n    tag_183:\n        /* \"#utility.yul\":10098:10099   */\n      0x01\n        /* \"#utility.yul\":10094:10095   */\n      0x02\n        /* \"#utility.yul\":10086:10092   */\n      dup9\n        /* \"#utility.yul\":10082:10096   */\n      mul\n        /* \"#utility.yul\":10078:10100   */\n      add\n        /* \"#utility.yul\":10072:10076   */\n      dup9\n        /* \"#utility.yul\":10065:10101   */\n      sstore\n        /* \"#utility.yul\":9500:10111   */\n      pop\n      pop\n      pop\n        /* \"#utility.yul\":9463:10350   */\n    tag_175:\n      pop\n        /* \"#utility.yul\":9053:10356   */\n      pop\n      pop\n      pop\n        /* \"#utility.yul\":8961:10356   */\n      pop\n      pop\n      jump\t// out\n\n    auxdata: 0xa26469706673582212202f06b39016b9c52e2ce1c0d9e5cb27d5ea8aca9e6c1e9ddcc082c332b9b338bb64736f6c634300081a0033\n}\n",
				"bytecode": {
					"linkReferences": {},
					"object": "6080604052348015600e575f80fd5b506107f98061001c5f395ff3fe608060405234801561000f575f80fd5b5060043610610034575f3560e01c80632f14f8a114610038578063f85248fb14610054575b5f80fd5b610052600480360381019061004d919061037c565b610075565b005b61005c6100df565b60405161006c94939291906104a9565b60405180910390f35b815f908161008391906106f4565b503360015f6101000a81548173ffffffffffffffffffffffffffffffffffffffff021916908373ffffffffffffffffffffffffffffffffffffffff16021790555080600290816100d391906106f4565b50426003819055505050565b60605f60605f8060015f9054906101000a900473ffffffffffffffffffffffffffffffffffffffff16600260035483805461011990610527565b80601f016020809104026020016040519081016040528092919081815260200182805461014590610527565b80156101905780601f1061016757610100808354040283529160200191610190565b820191905f5260205f20905b81548152906001019060200180831161017357829003601f168201915b505050505093508180546101a390610527565b80601f01602080910402602001604051908101604052809291908181526020018280546101cf90610527565b801561021a5780601f106101f15761010080835404028352916020019161021a565b820191905f5260205f20905b8154815290600101906020018083116101fd57829003601f168201915b50505050509150935093509350935090919293565b5f604051905090565b5f80fd5b5f80fd5b5f80fd5b5f80fd5b5f601f19601f8301169050919050565b7f4e487b71000000000000000000000000000000000000000000000000000000005f52604160045260245ffd5b61028e82610248565b810181811067ffffffffffffffff821117156102ad576102ac610258565b5b80604052505050565b5f6102bf61022f565b90506102cb8282610285565b919050565b5f67ffffffffffffffff8211156102ea576102e9610258565b5b6102f382610248565b9050602081019050919050565b828183375f83830152505050565b5f61032061031b846102d0565b6102b6565b90508281526020810184848401111561033c5761033b610244565b5b610347848285610300565b509392505050565b5f82601f83011261036357610362610240565b5b813561037384826020860161030e565b91505092915050565b5f806040838503121561039257610391610238565b5b5f83013567ffffffffffffffff8111156103af576103ae61023c565b5b6103bb8582860161034f565b925050602083013567ffffffffffffffff8111156103dc576103db61023c565b5b6103e88582860161034f565b9150509250929050565b5f81519050919050565b5f82825260208201905092915050565b8281835e5f83830152505050565b5f610424826103f2565b61042e81856103fc565b935061043e81856020860161040c565b61044781610248565b840191505092915050565b5f73ffffffffffffffffffffffffffffffffffffffff82169050919050565b5f61047b82610452565b9050919050565b61048b81610471565b82525050565b5f819050919050565b6104a381610491565b82525050565b5f6080820190508181035f8301526104c1818761041a565b90506104d06020830186610482565b81810360408301526104e2818561041a565b90506104f1606083018461049a565b95945050505050565b7f4e487b71000000000000000000000000000000000000000000000000000000005f52602260045260245ffd5b5f600282049050600182168061053e57607f821691505b602082108103610551576105506104fa565b5b50919050565b5f819050815f5260205f209050919050565b5f6020601f8301049050919050565b5f82821b905092915050565b5f600883026105b37fffffffffffffffffffffffffffffffffffffffffffffffffffffffffffffffff82610578565b6105bd8683610578565b95508019841693508086168417925050509392505050565b5f819050919050565b5f6105f86105f36105ee84610491565b6105d5565b610491565b9050919050565b5f819050919050565b610611836105de565b61062561061d826105ff565b848454610584565b825550505050565b5f90565b61063961062d565b610644818484610608565b505050565b5b818110156106675761065c5f82610631565b60018101905061064a565b5050565b601f8211156106ac5761067d81610557565b61068684610569565b81016020851015610695578190505b6106a96106a185610569565b830182610649565b50505b505050565b5f82821c905092915050565b5f6106cc5f19846008026106b1565b1980831691505092915050565b5f6106e483836106bd565b9150826002028217905092915050565b6106fd826103f2565b67ffffffffffffffff81111561071657610715610258565b5b6107208254610527565b61072b82828561066b565b5f60209050601f83116001811461075c575f841561074a578287015190505b61075485826106d9565b8655506107bb565b601f19841661076a86610557565b5f5b828110156107915784890151825560018201915060208501945060208101905061076c565b868310156107ae57848901516107aa601f8916826106bd565b8355505b6001600288020188555050505b50505050505056fea26469706673582212202f06b39016b9c52e2ce1c0d9e5cb27d5ea8aca9e6c1e9ddcc082c332b9b338bb64736f6c634300081a0033",
					"opcodes": "PUSH1 0x80 PUSH1 0x40 MSTORE CALLVALUE DUP1 ISZERO PUSH1 0xE JUMPI PUSH0 DUP1 REVERT JUMPDEST POP PUSH2 0x7F9 DUP1 PUSH2 0x1C PUSH0 CODECOPY PUSH0 RETURN INVALID PUSH1 0x80 PUSH1 0x40 MSTORE CALLVALUE DUP1 ISZERO PUSH2 0xF JUMPI PUSH0 DUP1 REVERT JUMPDEST POP PUSH1 0x4 CALLDATASIZE LT PUSH2 0x34 JUMPI PUSH0 CALLDATALOAD PUSH1 0xE0 SHR DUP1 PUSH4 0x2F14F8A1 EQ PUSH2 0x38 JUMPI DUP1 PUSH4 0xF85248FB EQ PUSH2 0x54 JUMPI JUMPDEST PUSH0 DUP1 REVERT JUMPDEST PUSH2 0x52 PUSH1 0x4 DUP1 CALLDATASIZE SUB DUP2 ADD SWAP1 PUSH2 0x4D SWAP2 SWAP1 PUSH2 0x37C JUMP JUMPDEST PUSH2 0x75 JUMP JUMPDEST STOP JUMPDEST PUSH2 0x5C PUSH2 0xDF JUMP JUMPDEST PUSH1 0x40 MLOAD PUSH2 0x6C SWAP5 SWAP4 SWAP3 SWAP2 SWAP1 PUSH2 0x4A9 JUMP JUMPDEST PUSH1 0x40 MLOAD DUP1 SWAP2 SUB SWAP1 RETURN JUMPDEST DUP2 PUSH0 SWAP1 DUP2 PUSH2 0x83 SWAP2 SWAP1 PUSH2 0x6F4 JUMP JUMPDEST POP CALLER PUSH1 0x1 PUSH0 PUSH2 0x100 EXP DUP2 SLOAD DUP2 PUSH20 0xFFFFFFFFFFFFFFFFFFFFFFFFFFFFFFFFFFFFFFFF MUL NOT AND SWAP1 DUP4 PUSH20 0xFFFFFFFFFFFFFFFFFFFFFFFFFFFFFFFFFFFFFFFF AND MUL OR SWAP1 SSTORE POP DUP1 PUSH1 0x2 SWAP1 DUP2 PUSH2 0xD3 SWAP2 SWAP1 PUSH2 0x6F4 JUMP JUMPDEST POP TIMESTAMP PUSH1 0x3 DUP2 SWAP1 SSTORE POP POP POP JUMP JUMPDEST PUSH1 0x60 PUSH0 PUSH1 0x60 PUSH0 DUP1 PUSH1 0x1 PUSH0 SWAP1 SLOAD SWAP1 PUSH2 0x100 EXP SWAP1 DIV PUSH20 0xFFFFFFFFFFFFFFFFFFFFFFFFFFFFFFFFFFFFFFFF AND PUSH1 0x2 PUSH1 0x3 SLOAD DUP4 DUP1 SLOAD PUSH2 0x119 SWAP1 PUSH2 0x527 JUMP JUMPDEST DUP1 PUSH1 0x1F ADD PUSH1 0x20 DUP1 SWAP2 DIV MUL PUSH1 0x20 ADD PUSH1 0x40 MLOAD SWAP1 DUP2 ADD PUSH1 0x40 MSTORE DUP1 SWAP3 SWAP2 SWAP1 DUP2 DUP2 MSTORE PUSH1 0x20 ADD DUP3 DUP1 SLOAD PUSH2 0x145 SWAP1 PUSH2 0x527 JUMP JUMPDEST DUP1 ISZERO PUSH2 0x190 JUMPI DUP1 PUSH1 0x1F LT PUSH2 0x167 JUMPI PUSH2 0x100 DUP1 DUP4 SLOAD DIV MUL DUP4 MSTORE SWAP2 PUSH1 0x20 ADD SWAP2 PUSH2 0x190 JUMP JUMPDEST DUP3 ADD SWAP2 SWAP1 PUSH0 MSTORE PUSH1 0x20 PUSH0 KECCAK256 SWAP1 JUMPDEST DUP2 SLOAD DUP2 MSTORE SWAP1 PUSH1 0x1 ADD SWAP1 PUSH1 0x20 ADD DUP1 DUP4 GT PUSH2 0x173 JUMPI DUP3 SWAP1 SUB PUSH1 0x1F AND DUP3 ADD SWAP2 JUMPDEST POP POP POP POP POP SWAP4 POP DUP2 DUP1 SLOAD PUSH2 0x1A3 SWAP1 PUSH2 0x527 JUMP JUMPDEST DUP1 PUSH1 0x1F ADD PUSH1 0x20 DUP1 SWAP2 DIV MUL PUSH1 0x20 ADD PUSH1 0x40 MLOAD SWAP1 DUP2 ADD PUSH1 0x40 MSTORE DUP1 SWAP3 SWAP2 SWAP1 DUP2 DUP2 MSTORE PUSH1 0x20 ADD DUP3 DUP1 SLOAD PUSH2 0x1CF SWAP1 PUSH2 0x527 JUMP JUMPDEST DUP1 ISZERO PUSH2 0x21A JUMPI DUP1 PUSH1 0x1F LT PUSH2 0x1F1 JUMPI PUSH2 0x100 DUP1 DUP4 SLOAD DIV MUL DUP4 MSTORE SWAP2 PUSH1 0x20 ADD SWAP2 PUSH2 0x21A JUMP JUMPDEST DUP3 ADD SWAP2 SWAP1 PUSH0 MSTORE PUSH1 0x20 PUSH0 KECCAK256 SWAP1 JUMPDEST DUP2 SLOAD DUP2 MSTORE SWAP1 PUSH1 0x1 ADD SWAP1 PUSH1 0x20 ADD DUP1 DUP4 GT PUSH2 0x1FD JUMPI DUP3 SWAP1 SUB PUSH1 0x1F AND DUP3 ADD SWAP2 JUMPDEST POP POP POP POP POP SWAP2 POP SWAP4 POP SWAP4 POP SWAP4 POP SWAP4 POP SWAP1 SWAP2 SWAP3 SWAP4 JUMP JUMPDEST PUSH0 PUSH1 0x40 MLOAD SWAP1 POP SWAP1 JUMP JUMPDEST PUSH0 DUP1 REVERT JUMPDEST PUSH0 DUP1 REVERT JUMPDEST PUSH0 DUP1 REVERT JUMPDEST PUSH0 DUP1 REVERT JUMPDEST PUSH0 PUSH1 0x1F NOT PUSH1 0x1F DUP4 ADD AND SWAP1 POP SWAP2 SWAP1 POP JUMP JUMPDEST PUSH32 0x4E487B7100000000000000000000000000000000000000000000000000000000 PUSH0 MSTORE PUSH1 0x41 PUSH1 0x4 MSTORE PUSH1 0x24 PUSH0 REVERT JUMPDEST PUSH2 0x28E DUP3 PUSH2 0x248 JUMP JUMPDEST DUP2 ADD DUP2 DUP2 LT PUSH8 0xFFFFFFFFFFFFFFFF DUP3 GT OR ISZERO PUSH2 0x2AD JUMPI PUSH2 0x2AC PUSH2 0x258 JUMP JUMPDEST JUMPDEST DUP1 PUSH1 0x40 MSTORE POP POP POP JUMP JUMPDEST PUSH0 PUSH2 0x2BF PUSH2 0x22F JUMP JUMPDEST SWAP1 POP PUSH2 0x2CB DUP3 DUP3 PUSH2 0x285 JUMP JUMPDEST SWAP2 SWAP1 POP JUMP JUMPDEST PUSH0 PUSH8 0xFFFFFFFFFFFFFFFF DUP3 GT ISZERO PUSH2 0x2EA JUMPI PUSH2 0x2E9 PUSH2 0x258 JUMP JUMPDEST JUMPDEST PUSH2 0x2F3 DUP3 PUSH2 0x248 JUMP JUMPDEST SWAP1 POP PUSH1 0x20 DUP2 ADD SWAP1 POP SWAP2 SWAP1 POP JUMP JUMPDEST DUP3 DUP2 DUP4 CALLDATACOPY PUSH0 DUP4 DUP4 ADD MSTORE POP POP POP JUMP JUMPDEST PUSH0 PUSH2 0x320 PUSH2 0x31B DUP5 PUSH2 0x2D0 JUMP JUMPDEST PUSH2 0x2B6 JUMP JUMPDEST SWAP1 POP DUP3 DUP2 MSTORE PUSH1 0x20 DUP2 ADD DUP5 DUP5 DUP5 ADD GT ISZERO PUSH2 0x33C JUMPI PUSH2 0x33B PUSH2 0x244 JUMP JUMPDEST JUMPDEST PUSH2 0x347 DUP5 DUP3 DUP6 PUSH2 0x300 JUMP JUMPDEST POP SWAP4 SWAP3 POP POP POP JUMP JUMPDEST PUSH0 DUP3 PUSH1 0x1F DUP4 ADD SLT PUSH2 0x363 JUMPI PUSH2 0x362 PUSH2 0x240 JUMP JUMPDEST JUMPDEST DUP2 CALLDATALOAD PUSH2 0x373 DUP5 DUP3 PUSH1 0x20 DUP7 ADD PUSH2 0x30E JUMP JUMPDEST SWAP2 POP POP SWAP3 SWAP2 POP POP JUMP JUMPDEST PUSH0 DUP1 PUSH1 0x40 DUP4 DUP6 SUB SLT ISZERO PUSH2 0x392 JUMPI PUSH2 0x391 PUSH2 0x238 JUMP JUMPDEST JUMPDEST PUSH0 DUP4 ADD CALLDATALOAD PUSH8 0xFFFFFFFFFFFFFFFF DUP2 GT ISZERO PUSH2 0x3AF JUMPI PUSH2 0x3AE PUSH2 0x23C JUMP JUMPDEST JUMPDEST PUSH2 0x3BB DUP6 DUP3 DUP7 ADD PUSH2 0x34F JUMP JUMPDEST SWAP3 POP POP PUSH1 0x20 DUP4 ADD CALLDATALOAD PUSH8 0xFFFFFFFFFFFFFFFF DUP2 GT ISZERO PUSH2 0x3DC JUMPI PUSH2 0x3DB PUSH2 0x23C JUMP JUMPDEST JUMPDEST PUSH2 0x3E8 DUP6 DUP3 DUP7 ADD PUSH2 0x34F JUMP JUMPDEST SWAP2 POP POP SWAP3 POP SWAP3 SWAP1 POP JUMP JUMPDEST PUSH0 DUP2 MLOAD SWAP1 POP SWAP2 SWAP1 POP JUMP JUMPDEST PUSH0 DUP3 DUP3 MSTORE PUSH1 0x20 DUP3 ADD SWAP1 POP SWAP3 SWAP2 POP POP JUMP JUMPDEST DUP3 DUP2 DUP4 MCOPY PUSH0 DUP4 DUP4 ADD MSTORE POP POP POP JUMP JUMPDEST PUSH0 PUSH2 0x424 DUP3 PUSH2 0x3F2 JUMP JUMPDEST PUSH2 0x42E DUP2 DUP6 PUSH2 0x3FC JUMP JUMPDEST SWAP4 POP PUSH2 0x43E DUP2 DUP6 PUSH1 0x20 DUP7 ADD PUSH2 0x40C JUMP JUMPDEST PUSH2 0x447 DUP2 PUSH2 0x248 JUMP JUMPDEST DUP5 ADD SWAP2 POP POP SWAP3 SWAP2 POP POP JUMP JUMPDEST PUSH0 PUSH20 0xFFFFFFFFFFFFFFFFFFFFFFFFFFFFFFFFFFFFFFFF DUP3 AND SWAP1 POP SWAP2 SWAP1 POP JUMP JUMPDEST PUSH0 PUSH2 0x47B DUP3 PUSH2 0x452 JUMP JUMPDEST SWAP1 POP SWAP2 SWAP1 POP JUMP JUMPDEST PUSH2 0x48B DUP2 PUSH2 0x471 JUMP JUMPDEST DUP3 MSTORE POP POP JUMP JUMPDEST PUSH0 DUP2 SWAP1 POP SWAP2 SWAP1 POP JUMP JUMPDEST PUSH2 0x4A3 DUP2 PUSH2 0x491 JUMP JUMPDEST DUP3 MSTORE POP POP JUMP JUMPDEST PUSH0 PUSH1 0x80 DUP3 ADD SWAP1 POP DUP2 DUP2 SUB PUSH0 DUP4 ADD MSTORE PUSH2 0x4C1 DUP2 DUP8 PUSH2 0x41A JUMP JUMPDEST SWAP1 POP PUSH2 0x4D0 PUSH1 0x20 DUP4 ADD DUP7 PUSH2 0x482 JUMP JUMPDEST DUP2 DUP2 SUB PUSH1 0x40 DUP4 ADD MSTORE PUSH2 0x4E2 DUP2 DUP6 PUSH2 0x41A JUMP JUMPDEST SWAP1 POP PUSH2 0x4F1 PUSH1 0x60 DUP4 ADD DUP5 PUSH2 0x49A JUMP JUMPDEST SWAP6 SWAP5 POP POP POP POP POP JUMP JUMPDEST PUSH32 0x4E487B7100000000000000000000000000000000000000000000000000000000 PUSH0 MSTORE PUSH1 0x22 PUSH1 0x4 MSTORE PUSH1 0x24 PUSH0 REVERT JUMPDEST PUSH0 PUSH1 0x2 DUP3 DIV SWAP1 POP PUSH1 0x1 DUP3 AND DUP1 PUSH2 0x53E JUMPI PUSH1 0x7F DUP3 AND SWAP2 POP JUMPDEST PUSH1 0x20 DUP3 LT DUP2 SUB PUSH2 0x551 JUMPI PUSH2 0x550 PUSH2 0x4FA JUMP JUMPDEST JUMPDEST POP SWAP2 SWAP1 POP JUMP JUMPDEST PUSH0 DUP2 SWAP1 POP DUP2 PUSH0 MSTORE PUSH1 0x20 PUSH0 KECCAK256 SWAP1 POP SWAP2 SWAP1 POP JUMP JUMPDEST PUSH0 PUSH1 0x20 PUSH1 0x1F DUP4 ADD DIV SWAP1 POP SWAP2 SWAP1 POP JUMP JUMPDEST PUSH0 DUP3 DUP3 SHL SWAP1 POP SWAP3 SWAP2 POP POP JUMP JUMPDEST PUSH0 PUSH1 0x8 DUP4 MUL PUSH2 0x5B3 PUSH32 0xFFFFFFFFFFFFFFFFFFFFFFFFFFFFFFFFFFFFFFFFFFFFFFFFFFFFFFFFFFFFFFFF DUP3 PUSH2 0x578 JUMP JUMPDEST PUSH2 0x5BD DUP7 DUP4 PUSH2 0x578 JUMP JUMPDEST SWAP6 POP DUP1 NOT DUP5 AND SWAP4 POP DUP1 DUP7 AND DUP5 OR SWAP3 POP POP POP SWAP4 SWAP3 POP POP POP JUMP JUMPDEST PUSH0 DUP2 SWAP1 POP SWAP2 SWAP1 POP JUMP JUMPDEST PUSH0 PUSH2 0x5F8 PUSH2 0x5F3 PUSH2 0x5EE DUP5 PUSH2 0x491 JUMP JUMPDEST PUSH2 0x5D5 JUMP JUMPDEST PUSH2 0x491 JUMP JUMPDEST SWAP1 POP SWAP2 SWAP1 POP JUMP JUMPDEST PUSH0 DUP2 SWAP1 POP SWAP2 SWAP1 POP JUMP JUMPDEST PUSH2 0x611 DUP4 PUSH2 0x5DE JUMP JUMPDEST PUSH2 0x625 PUSH2 0x61D DUP3 PUSH2 0x5FF JUMP JUMPDEST DUP5 DUP5 SLOAD PUSH2 0x584 JUMP JUMPDEST DUP3 SSTORE POP POP POP POP JUMP JUMPDEST PUSH0 SWAP1 JUMP JUMPDEST PUSH2 0x639 PUSH2 0x62D JUMP JUMPDEST PUSH2 0x644 DUP2 DUP5 DUP5 PUSH2 0x608 JUMP JUMPDEST POP POP POP JUMP JUMPDEST JUMPDEST DUP2 DUP2 LT ISZERO PUSH2 0x667 JUMPI PUSH2 0x65C PUSH0 DUP3 PUSH2 0x631 JUMP JUMPDEST PUSH1 0x1 DUP2 ADD SWAP1 POP PUSH2 0x64A JUMP JUMPDEST POP POP JUMP JUMPDEST PUSH1 0x1F DUP3 GT ISZERO PUSH2 0x6AC JUMPI PUSH2 0x67D DUP2 PUSH2 0x557 JUMP JUMPDEST PUSH2 0x686 DUP5 PUSH2 0x569 JUMP JUMPDEST DUP2 ADD PUSH1 0x20 DUP6 LT ISZERO PUSH2 0x695 JUMPI DUP2 SWAP1 POP JUMPDEST PUSH2 0x6A9 PUSH2 0x6A1 DUP6 PUSH2 0x569 JUMP JUMPDEST DUP4 ADD DUP3 PUSH2 0x649 JUMP JUMPDEST POP POP JUMPDEST POP POP POP JUMP JUMPDEST PUSH0 DUP3 DUP3 SHR SWAP1 POP SWAP3 SWAP2 POP POP JUMP JUMPDEST PUSH0 PUSH2 0x6CC PUSH0 NOT DUP5 PUSH1 0x8 MUL PUSH2 0x6B1 JUMP JUMPDEST NOT DUP1 DUP4 AND SWAP2 POP POP SWAP3 SWAP2 POP POP JUMP JUMPDEST PUSH0 PUSH2 0x6E4 DUP4 DUP4 PUSH2 0x6BD JUMP JUMPDEST SWAP2 POP DUP3 PUSH1 0x2 MUL DUP3 OR SWAP1 POP SWAP3 SWAP2 POP POP JUMP JUMPDEST PUSH2 0x6FD DUP3 PUSH2 0x3F2 JUMP JUMPDEST PUSH8 0xFFFFFFFFFFFFFFFF DUP2 GT ISZERO PUSH2 0x716 JUMPI PUSH2 0x715 PUSH2 0x258 JUMP JUMPDEST JUMPDEST PUSH2 0x720 DUP3 SLOAD PUSH2 0x527 JUMP JUMPDEST PUSH2 0x72B DUP3 DUP3 DUP6 PUSH2 0x66B JUMP JUMPDEST PUSH0 PUSH1 0x20 SWAP1 POP PUSH1 0x1F DUP4 GT PUSH1 0x1 DUP2 EQ PUSH2 0x75C JUMPI PUSH0 DUP5 ISZERO PUSH2 0x74A JUMPI DUP3 DUP8 ADD MLOAD SWAP1 POP JUMPDEST PUSH2 0x754 DUP6 DUP3 PUSH2 0x6D9 JUMP JUMPDEST DUP7 SSTORE POP PUSH2 0x7BB JUMP JUMPDEST PUSH1 0x1F NOT DUP5 AND PUSH2 0x76A DUP7 PUSH2 0x557 JUMP JUMPDEST PUSH0 JUMPDEST DUP3 DUP2 LT ISZERO PUSH2 0x791 JUMPI DUP5 DUP10 ADD MLOAD DUP3 SSTORE PUSH1 0x1 DUP3 ADD SWAP2 POP PUSH1 0x20 DUP6 ADD SWAP5 POP PUSH1 0x20 DUP2 ADD SWAP1 POP PUSH2 0x76C JUMP JUMPDEST DUP7 DUP4 LT ISZERO PUSH2 0x7AE JUMPI DUP5 DUP10 ADD MLOAD PUSH2 0x7AA PUSH1 0x1F DUP10 AND DUP3 PUSH2 0x6BD JUMP JUMPDEST DUP4 SSTORE POP JUMPDEST PUSH1 0x1 PUSH1 0x2 DUP9 MUL ADD DUP9 SSTORE POP POP POP JUMPDEST POP POP POP POP POP POP JUMP INVALID LOG2 PUSH5 0x6970667358 0x22 SLT KECCAK256 0x2F MOD 0xB3 SWAP1 AND 0xB9 0xC5 0x2E 0x2C 0xE1 0xC0 0xD9 0xE5 0xCB 0x27 0xD5 0xEA DUP11 0xCA SWAP15 PUSH13 0x1E9DDCC082C332B9B338BB6473 PUSH16 0x6C634300081A00330000000000000000 "
				},
				"gasEstimates": {
					"creation": {
						"codeDepositCost": "408200",
						"executionCost": "441",
						"totalCost": "408641"
					},
					"external": {
						"seeLastVisit()": "infinite",
						"writeVisit(string,string)": "infinite"
					}
				},
				"methodIdentifiers": {
					"seeLastVisit()": "f85248fb",
					"writeVisit(string,string)": "2f14f8a1"
				}
			},
			"storageLayout": {
				"storage": [
					{
						"astId": 3,
						"contract": "contracts/4_HelloWorld.sol:HelloWorld",
						"label": "name",
						"offset": 0,
						"slot": "0",
						"type": "t_string_storage"
					},
					{
						"astId": 5,
						"contract": "contracts/4_HelloWorld.sol:HelloWorld",
						"label": "wallet",
						"offset": 0,
						"slot": "1",
						"type": "t_address"
					},
					{
						"astId": 7,
						"contract": "contracts/4_HelloWorld.sol:HelloWorld",
						"label": "message",
						"offset": 0,
						"slot": "2",
						"type": "t_string_storage"
					},
					{
						"astId": 9,
						"contract": "contracts/4_HelloWorld.sol:HelloWorld",
						"label": "date",
						"offset": 0,
						"slot": "3",
						"type": "t_uint256"
					}
				],
				"types": {
					"t_address": {
						"encoding": "inplace",
						"label": "address",
						"numberOfBytes": "20"
					},
					"t_string_storage": {
						"encoding": "bytes",
						"label": "string",
						"numberOfBytes": "32"
					},
					"t_uint256": {
						"encoding": "inplace",
						"label": "uint256",
						"numberOfBytes": "32"
					}
				}
			},
			"userdoc": {
				"kind": "user",
				"methods": {},
				"version": 1
			}
		}
	}
}